{"abi":[{"type":"function","name":"addAsset","inputs":[{"name":"amount","type":"uint256","internalType":"uint256"}],"outputs":[],"stateMutability":"nonpayable"},{"type":"function","name":"getAddressCount","inputs":[],"outputs":[{"name":"","type":"uint256","internalType":"uint256"}],"stateMutability":"view"},{"type":"function","name":"getAsset","inputs":[{"name":"addr","type":"address","internalType":"address"}],"outputs":[{"name":"","type":"uint256","internalType":"uint256"}],"stateMutability":"view"},{"type":"function","name":"getRegisteredAddresses","inputs":[],"outputs":[{"name":"","type":"address[]","internalType":"address[]"}],"stateMutability":"view"},{"type":"function","name":"registAddress","inputs":[{"name":"addr","type":"address","internalType":"address"}],"outputs":[],"stateMutability":"nonpayable"},{"type":"event","name":"AddressRegistered","inputs":[{"name":"addr","type":"address","indexed":true,"internalType":"address"}],"anonymous":false},{"type":"event","name":"AssetUpdated","inputs":[{"name":"addr","type":"address","indexed":true,"internalType":"address"},{"name":"amount","type":"uint256","indexed":false,"internalType":"uint256"}],"anonymous":false}],"bytecode":{"object":"0x6080604052348015600f57600080fd5b5061046b8061001f6000396000f3fe608060405234801561001057600080fd5b50600436106100575760003560e01c80630b71d2561461005c5780631a5ff8c414610071578063227ef0611461008457806330b8b2c6146100a2578063cdbb02af146100d9575b600080fd5b61006f61006a366004610363565b6100e1565b005b61006f61007f36600461037c565b6101f6565b61008c610301565b60405161009991906103ac565b60405180910390f35b6100cb6100b036600461037c565b6001600160a01b031660009081526001602052604090205490565b604051908152602001610099565b6000546100cb565b6000805b60005481101561013757336001600160a01b03166000828154811061010c5761010c6103f8565b6000918252602090912001546001600160a01b03160361012f5760019150610137565b6001016100e5565b508061018a5760405162461bcd60e51b815260206004820152601960248201527f41646472657373206973206e6f7420726567697374657265640000000000000060448201526064015b60405180910390fd5b33600090815260016020526040812080548492906101a990849061040e565b9091555050336000818152600160209081526040918290205491519182527f752376a7b9ab25603152a064d1999ffee4cc33e72d62a555135fc56ab2bec308910160405180910390a25050565b60005b60005481101561028a57816001600160a01b031660008281548110610220576102206103f8565b6000918252602090912001546001600160a01b0316036102825760405162461bcd60e51b815260206004820152601d60248201527f4164647265737320697320616c726561647920726567697374657265640000006044820152606401610181565b6001016101f9565b50600080546001810182558180527f290decd9548b62a8d60345a988386fc84ba6bc95484008f6362f93160ef3e5630180546001600160a01b0319166001600160a01b03841690811790915560405190917fb2899cb26a6f22b6b94e4cc8de24dc97bcf3cc73fc0dfaac71decef29fac7c5391a250565b6060600080548060200260200160405190810160405280929190818152602001828054801561035957602002820191906000526020600020905b81546001600160a01b0316815260019091019060200180831161033b575b5050505050905090565b60006020828403121561037557600080fd5b5035919050565b60006020828403121561038e57600080fd5b81356001600160a01b03811681146103a557600080fd5b9392505050565b602080825282518282018190526000918401906040840190835b818110156103ed5783516001600160a01b03168352602093840193909201916001016103c6565b509095945050505050565b634e487b7160e01b600052603260045260246000fd5b8082018082111561042f57634e487b7160e01b600052601160045260246000fd5b9291505056fea26469706673582212204b67ad3b9abca3f549f9623a77b8a1ca3c31450e5bc9e452660954fb587dceab64736f6c634300081a0033","linkReferences":{}},"methodIdentifiers":{"addAsset(uint256)":"0b71d256","getAddressCount()":"cdbb02af","getAsset(address)":"30b8b2c6","getRegisteredAddresses()":"227ef061","registAddress(address)":"1a5ff8c4"},"id":20}