{"abi":[{"type":"function","name":"addAsset","inputs":[{"name":"amount","type":"uint256","internalType":"uint256"}],"outputs":[],"stateMutability":"nonpayable"},{"type":"function","name":"addAssetWithHash","inputs":[{"name":"amount","type":"uint256","internalType":"uint256"},{"name":"hashvalue","type":"bytes","internalType":"bytes"}],"outputs":[],"stateMutability":"nonpayable"},{"type":"function","name":"getAddressCount","inputs":[],"outputs":[{"name":"","type":"uint256","internalType":"uint256"}],"stateMutability":"view"},{"type":"function","name":"getAsset","inputs":[{"name":"addr","type":"address","internalType":"address"}],"outputs":[{"name":"","type":"uint256","internalType":"uint256"}],"stateMutability":"view"},{"type":"function","name":"getRegisteredAddresses","inputs":[],"outputs":[{"name":"","type":"address[]","internalType":"address[]"}],"stateMutability":"view"},{"type":"function","name":"registAddress","inputs":[{"name":"addr","type":"address","internalType":"address"}],"outputs":[],"stateMutability":"nonpayable"},{"type":"event","name":"AddressRegistered","inputs":[{"name":"addr","type":"address","indexed":true,"internalType":"address"}],"anonymous":false},{"type":"event","name":"AssetUpdated","inputs":[{"name":"addr","type":"address","indexed":true,"internalType":"address"},{"name":"amount","type":"uint256","indexed":false,"internalType":"uint256"}],"anonymous":false}],"bytecode":{"object":"0x6080604052348015600f57600080fd5b506108d68061001f6000396000f3fe608060405234801561001057600080fd5b50600436106100625760003560e01c80630b71d256146100675780631a5ff8c41461007c578063227ef0611461008f57806330b8b2c6146100ad578063338bf2ac146100e4578063cdbb02af146100f7575b600080fd5b61007a6100753660046105f1565b6100ff565b005b61007a61008a36600461060a565b610210565b61009761031b565b6040516100a4919061063a565b60405180910390f35b6100d66100bb36600461060a565b6001600160a01b031660009081526001602052604090205490565b6040519081526020016100a4565b61007a6100f2366004610686565b61037d565b6000546100d6565b6000805b60005481101561015557336001600160a01b03166000828154811061012a5761012a610704565b6000918252602090912001546001600160a01b03160361014d5760019150610155565b600101610103565b50806101a45760405162461bcd60e51b81526020600482015260196024820152781059191c995cdcc81a5cc81b9bdd081c9959da5cdd195c9959603a1b60448201526064015b60405180910390fd5b33600090815260016020526040812080548492906101c390849061071a565b9091555050336000818152600160209081526040918290205491519182527f752376a7b9ab25603152a064d1999ffee4cc33e72d62a555135fc56ab2bec308910160405180910390a25050565b60005b6000548110156102a457816001600160a01b03166000828154811061023a5761023a610704565b6000918252602090912001546001600160a01b03160361029c5760405162461bcd60e51b815260206004820152601d60248201527f4164647265737320697320616c72656164792072656769737465726564000000604482015260640161019b565b600101610213565b50600080546001810182558180527f290decd9548b62a8d60345a988386fc84ba6bc95484008f6362f93160ef3e5630180546001600160a01b0319166001600160a01b03841690811790915560405190917fb2899cb26a6f22b6b94e4cc8de24dc97bcf3cc73fc0dfaac71decef29fac7c5391a250565b6060600080548060200260200160405190810160405280929190818152602001828054801561037357602002820191906000526020600020905b81546001600160a01b03168152600190910190602001808311610355575b5050505050905090565b6000805b6000548110156103d357336001600160a01b0316600082815481106103a8576103a8610704565b6000918252602090912001546001600160a01b0316036103cb57600191506103d3565b600101610381565b508061041d5760405162461bcd60e51b81526020600482015260196024820152781059191c995cdcc81a5cc81b9bdd081c9959da5cdd195c9959603a1b604482015260640161019b565b6000805b336000908152600260205260409020548110156105085760005b60208110156104fa5785858281811061045657610456610704565b336000908152600260205260409020805491909301356001600160f81b0319169291508490811061048957610489610704565b9060005260206000200182815461049f90610741565b81106104ad576104ad610704565b8154600116156104cc5790600052602060002090602091828204019190065b9054901a600160f81b026001600160f81b031916036104fa5780601f036104f257600192505b60010161043b565b508161050857600101610421565b5080156105575760405162461bcd60e51b815260206004820152601a60248201527f4861736820697320616c72656164792072656769737465726564000000000000604482015260640161019b565b336000908152600160205260408120805487929061057690849061071a565b9091555050336000908152600260209081526040822080546001810182559083529120016105a58486836107e0565b50336000818152600160209081526040918290205491519182527f752376a7b9ab25603152a064d1999ffee4cc33e72d62a555135fc56ab2bec308910160405180910390a25050505050565b60006020828403121561060357600080fd5b5035919050565b60006020828403121561061c57600080fd5b81356001600160a01b038116811461063357600080fd5b9392505050565b602080825282518282018190526000918401906040840190835b8181101561067b5783516001600160a01b0316835260209384019390920191600101610654565b509095945050505050565b60008060006040848603121561069b57600080fd5b83359250602084013567ffffffffffffffff8111156106b957600080fd5b8401601f810186136106ca57600080fd5b803567ffffffffffffffff8111156106e157600080fd5b8660208284010111156106f357600080fd5b939660209190910195509293505050565b634e487b7160e01b600052603260045260246000fd5b8082018082111561073b57634e487b7160e01b600052601160045260246000fd5b92915050565b600181811c9082168061075557607f821691505b60208210810361077557634e487b7160e01b600052602260045260246000fd5b50919050565b634e487b7160e01b600052604160045260246000fd5b601f8211156107db57806000526020600020601f840160051c810160208510156107b85750805b601f840160051c820191505b818110156107d857600081556001016107c4565b50505b505050565b67ffffffffffffffff8311156107f8576107f861077b565b61080c836108068354610741565b83610791565b6000601f84116001811461084057600085156108285750838201355b600019600387901b1c1916600186901b1783556107d8565b600083815260209020601f19861690835b828110156108715786850135825560209485019460019092019101610851565b508682101561088e5760001960f88860031b161c19848701351681555b505060018560011b018355505050505056fea26469706673582212206ff68a46e297e5c1470b597c6ddc5dffd7eabe123b01b418824e96fadede176764736f6c634300081a0033","linkReferences":{}},"methodIdentifiers":{"addAsset(uint256)":"0b71d256","addAssetWithHash(uint256,bytes)":"338bf2ac","getAddressCount()":"cdbb02af","getAsset(address)":"30b8b2c6","getRegisteredAddresses()":"227ef061","registAddress(address)":"1a5ff8c4"},"id":20}