{"abi":[{"type":"function","name":"addAsset","inputs":[{"name":"amount","type":"uint256","internalType":"uint256"}],"outputs":[],"stateMutability":"nonpayable"},{"type":"function","name":"addAssetWithHash","inputs":[{"name":"amount","type":"uint256","internalType":"uint256"},{"name":"hashvalue","type":"bytes","internalType":"bytes"}],"outputs":[],"stateMutability":"nonpayable"},{"type":"function","name":"getAddressCount","inputs":[],"outputs":[{"name":"","type":"uint256","internalType":"uint256"}],"stateMutability":"view"},{"type":"function","name":"getAsset","inputs":[{"name":"addr","type":"address","internalType":"address"}],"outputs":[{"name":"","type":"uint256","internalType":"uint256"}],"stateMutability":"view"},{"type":"function","name":"getHash","inputs":[{"name":"addr","type":"address","internalType":"address"}],"outputs":[{"name":"","type":"bytes[]","internalType":"bytes[]"}],"stateMutability":"view"},{"type":"function","name":"getRegisteredAddresses","inputs":[],"outputs":[{"name":"","type":"address[]","internalType":"address[]"}],"stateMutability":"view"},{"type":"function","name":"registAddress","inputs":[{"name":"addr","type":"address","internalType":"address"}],"outputs":[],"stateMutability":"nonpayable"},{"type":"event","name":"AddressRegistered","inputs":[{"name":"addr","type":"address","indexed":true,"internalType":"address"}],"anonymous":false},{"type":"event","name":"AssetUpdated","inputs":[{"name":"addr","type":"address","indexed":true,"internalType":"address"},{"name":"amount","type":"uint256","indexed":false,"internalType":"uint256"}],"anonymous":false}],"bytecode":{"object":"0x608060405234801561001057600080fd5b50610ae5806100206000396000f3fe608060405234801561001057600080fd5b506004361061007d5760003560e01c8063227ef0611161005b578063227ef061146100d357806330b8b2c6146100e8578063338bf2ac1461011f578063cdbb02af1461013257600080fd5b80630b71d256146100825780631a5ff8c4146100975780631da0b8fc146100aa575b600080fd5b61009561009036600461074d565b61013a565b005b6100956100a5366004610766565b610255565b6100bd6100b8366004610766565b61036a565b6040516100ca9190610796565b60405180910390f35b6100db610459565b6040516100ca9190610828565b6101116100f6366004610766565b6001600160a01b031660009081526001602052604090205490565b6040519081526020016100ca565b61009561012d366004610875565b6104bb565b600054610111565b6000805b60005481101561019a57336001600160a01b031660008281548110610165576101656108f1565b6000918252602090912001546001600160a01b031603610188576001915061019a565b806101928161091d565b91505061013e565b50806101e95760405162461bcd60e51b81526020600482015260196024820152781059191c995cdcc81a5cc81b9bdd081c9959da5cdd195c9959603a1b60448201526064015b60405180910390fd5b3360009081526001602052604081208054849290610208908490610936565b9091555050336000818152600160209081526040918290205491519182527f752376a7b9ab25603152a064d1999ffee4cc33e72d62a555135fc56ab2bec308910160405180910390a25050565b60005b6000548110156102f357816001600160a01b03166000828154811061027f5761027f6108f1565b6000918252602090912001546001600160a01b0316036102e15760405162461bcd60e51b815260206004820152601d60248201527f4164647265737320697320616c7265616479207265676973746572656400000060448201526064016101e0565b806102eb8161091d565b915050610258565b50600080546001810182558180527f290decd9548b62a8d60345a988386fc84ba6bc95484008f6362f93160ef3e5630180546001600160a01b0319166001600160a01b03841690811790915560405190917fb2899cb26a6f22b6b94e4cc8de24dc97bcf3cc73fc0dfaac71decef29fac7c5391a250565b6001600160a01b0381166000908152600260209081526040808320805482518185028101850190935280835260609492939192909184015b8282101561044e5783829060005260206000200180546103c19061094f565b80601f01602080910402602001604051908101604052809291908181526020018280546103ed9061094f565b801561043a5780601f1061040f5761010080835404028352916020019161043a565b820191906000526020600020905b81548152906001019060200180831161041d57829003601f168201915b5050505050815260200190600101906103a2565b505050509050919050565b606060008054806020026020016040519081016040528092919081815260200182805480156104b157602002820191906000526020600020905b81546001600160a01b03168152600190910190602001808311610493575b5050505050905090565b6000805b60005481101561051b57336001600160a01b0316600082815481106104e6576104e66108f1565b6000918252602090912001546001600160a01b031603610509576001915061051b565b806105138161091d565b9150506104bf565b50806105655760405162461bcd60e51b81526020600482015260196024820152781059191c995cdcc81a5cc81b9bdd081c9959da5cdd195c9959603a1b60448201526064016101e0565b6000805b336000908152600260205260409020548110156106645760005b602081101561064c5785858281811061059e5761059e6108f1565b336000908152600260205260409020805491909301356001600160f81b031916929150849081106105d1576105d16108f1565b906000526020600020018281546105e79061094f565b81106105f5576105f56108f1565b8154600116156106145790600052602060002090602091828204019190065b9054901a600160f81b026001600160f81b0319160361064c5780601f0361063a57600192505b806106448161091d565b915050610583565b5081610664578061065c8161091d565b915050610569565b5080156106b35760405162461bcd60e51b815260206004820152601a60248201527f4861736820697320616c7265616479207265676973746572656400000000000060448201526064016101e0565b33600090815260016020526040812080548792906106d2908490610936565b9091555050336000908152600260209081526040822080546001810182559083529120016107018486836109ee565b50336000818152600160209081526040918290205491519182527f752376a7b9ab25603152a064d1999ffee4cc33e72d62a555135fc56ab2bec308910160405180910390a25050505050565b60006020828403121561075f57600080fd5b5035919050565b60006020828403121561077857600080fd5b81356001600160a01b038116811461078f57600080fd5b9392505050565b6000602080830181845280855180835260408601915060408160051b87010192508387016000805b8381101561081a57888603603f1901855282518051808852835b818110156107f3578281018a01518982018b015289016107d8565b508781018901849052601f01601f19169096018701955093860193918601916001016107be565b509398975050505050505050565b6020808252825182820181905260009190848201906040850190845b818110156108695783516001600160a01b031683529284019291840191600101610844565b50909695505050505050565b60008060006040848603121561088a57600080fd5b83359250602084013567ffffffffffffffff808211156108a957600080fd5b818601915086601f8301126108bd57600080fd5b8135818111156108cc57600080fd5b8760208285010111156108de57600080fd5b6020830194508093505050509250925092565b634e487b7160e01b600052603260045260246000fd5b634e487b7160e01b600052601160045260246000fd5b60006001820161092f5761092f610907565b5060010190565b8082018082111561094957610949610907565b92915050565b600181811c9082168061096357607f821691505b60208210810361098357634e487b7160e01b600052602260045260246000fd5b50919050565b634e487b7160e01b600052604160045260246000fd5b601f8211156109e957600081815260208120601f850160051c810160208610156109c65750805b601f850160051c820191505b818110156109e5578281556001016109d2565b5050505b505050565b67ffffffffffffffff831115610a0657610a06610989565b610a1a83610a14835461094f565b8361099f565b6000601f841160018114610a4e5760008515610a365750838201355b600019600387901b1c1916600186901b178355610aa8565b600083815260209020601f19861690835b82811015610a7f5786850135825560209485019460019092019101610a5f565b5086821015610a9c5760001960f88860031b161c19848701351681555b505060018560011b0183555b505050505056fea264697066735822122001abdd8ec2f642be2d2242d73d7d963c61e50f0185db8bac5ae84bb45314013164736f6c63430008130033","linkReferences":{}},"methodIdentifiers":{"addAsset(uint256)":"0b71d256","addAssetWithHash(uint256,bytes)":"338bf2ac","getAddressCount()":"cdbb02af","getAsset(address)":"30b8b2c6","getHash(address)":"1da0b8fc","getRegisteredAddresses()":"227ef061","registAddress(address)":"1a5ff8c4"},"id":20}