{"abi":[{"type":"function","name":"getAddressCount","inputs":[],"outputs":[{"name":"","type":"uint256","internalType":"uint256"}],"stateMutability":"view"},{"type":"function","name":"getRegisteredAddresses","inputs":[],"outputs":[{"name":"","type":"address[]","internalType":"address[]"}],"stateMutability":"view"},{"type":"function","name":"registAddress","inputs":[{"name":"addr","type":"address","internalType":"address"}],"outputs":[],"stateMutability":"nonpayable"},{"type":"event","name":"AddressRegistered","inputs":[{"name":"addr","type":"address","indexed":true,"internalType":"address"}],"anonymous":false}],"bytecode":{"object":"0x6080604052348015600f57600080fd5b506102148061001f6000396000f3fe608060405234801561001057600080fd5b50600436106100415760003560e01c80631a5ff8c414610046578063227ef0611461005b578063cdbb02af14610079575b600080fd5b610059610054366004610162565b61008a565b005b610063610100565b6040516100709190610192565b60405180910390f35b600054604051908152602001610070565b600080546001810182558180527f290decd9548b62a8d60345a988386fc84ba6bc95484008f6362f93160ef3e5630180546001600160a01b0319166001600160a01b03841690811790915560405190917fb2899cb26a6f22b6b94e4cc8de24dc97bcf3cc73fc0dfaac71decef29fac7c5391a250565b6060600080548060200260200160405190810160405280929190818152602001828054801561015857602002820191906000526020600020905b81546001600160a01b0316815260019091019060200180831161013a575b5050505050905090565b60006020828403121561017457600080fd5b81356001600160a01b038116811461018b57600080fd5b9392505050565b602080825282518282018190526000918401906040840190835b818110156101d35783516001600160a01b03168352602093840193909201916001016101ac565b50909594505050505056fea26469706673582212208d2f423510eccdb881e7d4b0f5a1e166dc2e62346937d51a2a874df69ba804af64736f6c634300081a0033","linkReferences":{}},"methodIdentifiers":{"getAddressCount()":"cdbb02af","getRegisteredAddresses()":"227ef061","registAddress(address)":"1a5ff8c4"},"id":23}