{"abi":[{"type":"function","name":"decrement","inputs":[],"outputs":[],"stateMutability":"nonpayable"},{"type":"function","name":"increment","inputs":[],"outputs":[],"stateMutability":"nonpayable"},{"type":"function","name":"number","inputs":[],"outputs":[{"name":"","type":"uint256","internalType":"uint256"}],"stateMutability":"view"},{"type":"function","name":"setNumber","inputs":[{"name":"newNumber","type":"uint256","internalType":"uint256"}],"outputs":[],"stateMutability":"nonpayable"}],"bytecode":{"object":"0x6080604052348015600f57600080fd5b506101328061001f6000396000f3fe6080604052348015600f57600080fd5b506004361060465760003560e01c80632baeceb714604b5780633fb5c1cb1460535780638381f58a146063578063d09de08a14607d575b600080fd5b60516083565b005b6051605e36600460a4565b600055565b606b60005481565b60405190815260200160405180910390f35b60516097565b60008054908060908360d2565b9190505550565b60008054908060908360e6565b60006020828403121560b557600080fd5b5035919050565b634e487b7160e01b600052601160045260246000fd5b60008160de5760de60bc565b506000190190565b60006001820160f55760f560bc565b506001019056fea2646970667358221220b85517f7f7ea5bb02206aa1074203f1d55573a56b95a5682b4747a519d32bd8d64736f6c634300081a0033","linkReferences":{}},"methodIdentifiers":{"decrement()":"2baeceb7","increment()":"d09de08a","number()":"8381f58a","setNumber(uint256)":"3fb5c1cb"},"id":27}